:020000040800F2
:1000000000000220B90200084D170008511700082F
:1000100055170008591700085D1700080000000078
:100020000000000000000000000000006117000850
:100030006517000800000000691700086D17000828
:10004000BD030008BD030008BD030008BD03000890
:10005000BD030008BD030008BD030008BD03000880
:10006000BD030008BD030008BD030008BD03000870
:10007000BD030008BD030008BD030008BD03000860
:10008000BD030008BD030008BD030008BD03000850
:10009000BD030008BD030008BD030008BD03000840
:1000A000BD030008BD030008BD030008BD03000830
:1000B000BD030008BD030008BD030008BD03000820
:1000C000BD030008BD030008BD030008BD03000810
:1000D000BD030008BD030008BD030008BD03000800
:1000E000BD030008BD030008BD030008BD030008F0
:1000F000BD030008BD030008BD030008BD030008E0
:10010000BD030008BD030008BD030008BD030008CF
:10011000BD030008BD030008BD030008BD030008BF
:10012000BD030008BD030008BD030008BD030008AF
:10013000BD030008BD030008BD030008BD0300089F
:10014000BD030008BD030008BD030008BD0300088F
:10015000BD030008BD030008BD030008BD0300087F
:10016000BD030008BD030008BD030008BD0300086F
:10017000BD030008BD030008BD0300080000000027
:10018000BD030008BD03000800B583B001F088F886
:10019000384B394A1360394A136039490CE00A6810
:1001A0004B6801F10C04886803E01168196004339E
:1001B00004329842F9D82146324B9942EFD32E4B64
:1001C0001A68314B9A4204D12C4B1A682F4B9A4231
:1001D00000D0FEE7274B2E4A13602E4A13602E4BA9
:1001E0000AE0194651F8082B5B6802E00020106015
:1001F00004329A42FAD30B46284A9342F1D3244B55
:100200001B6813B9234B1B6803B1FEE701F01AFA10
:1002100001A8694600F0DEFF214C224B1C1BA410F4
:10022000002504E01E4B53F8253098470135AC42B9
:10023000F8DC1D4C1D4B1C1BA410002504E01A4BC0
:1002400053F8253098470135AC42F8DC0198009905
:1002500001F000FA0546164C164B1C1BA41004E0D6
:10026000013C134B53F824309847002CF8DC284607
:1002700000F082FFBABADECA00000020840000202D
:10028000C0030008D8030008785634123254769818
:100290008800002034010020D8030008E80300088B
:1002A000E8030008E8030008E8030008E803000882
:1002B000E8030008E803000808B5FFF765FF00BF82
:1002C000FEE700BF1EF0040F0CBFEFF30880EFF352
:1002D00009807146364A10472DE9F04182B0074641
:1002E0008846084B5D6B9C6B9E6A074800F086FF52
:1002F000CDF80080384631462A46234600F0D4FF28
:10030000FEE700BF00ED00E054220008FEE700BF5A
:100310001EF0040F0CBFEFF30880EFF30980714665
:10032000244A10472DE9F04182B007468846084B21
:100330005D6B9C6B9E6A074800F060FFCDF8008003
:10034000384631462A46234600F0AEFFFEE700BF9E
:1003500000ED00E0642200081EF0040F0CBFEFF374
:100360000880EFF309807146134A10472DE9F041E8
:1003700082B007468846084B5D6B9C6B9E6A0748B7
:1003800000F03CFFCDF80080384631462A4623462F
:1003900000F08AFFFEE700BF00ED00E070220008D9
:1003A000FEE700BFFEE700BFFEE700BF70470000AA
:1003B000D9020008250300086D030008FEE700BF0E
:1003C000C02200080000002088000020C022000891
:1003D00000000010000000108800002038010020FC
:0803E0000000001000000010F5
:1003E80010B5044600F0A8FE064BA3FB00308009B8
:1003F80000F092F84FF0FF302146002200F04AF852
:10040800002010BDD34D621008B50B4B1A6842F49A
:1004180000721A601A6842F480621A601A6842F41C
:1004280080721A60032000F017F80F20FFF7D8FF3A
:1004380000F044FA002008BD003C0240024A13685C
:1004480001331360704700BF8C000020014B18680F
:10045800704700BF8C00002010B50446C31E042B53
:1004680003D90A48A42100F0B9FE04F00700084A9D
:10047800D36823F4E0631B041B0C43EA002040F01C
:10048800BF6040F40030D06010BD00BFE81F000816
:1004980000ED00E070B504460E4615460F2A03D954
:1004A8001A48BC2100F09AFE0F2E03D91748BD2127
:1004B80000F094FE164BDB68C3F30223C3F1070276
:1004C800042A28BF0422191D062901D9D81E00E0D4
:1004D8000020012303FA02F2013A324002FA00F145
:1004E80083405A1E2A400A43002C06DA04F00F04FF
:1004F8001201D2B2074B1A5570BD1201D2B204F1E3
:10050800604404F5614484F8002370BDE81F0008C6
:1005180000ED00E014ED00E00138B0F1807F0AD270
:10052800064B5860F021064A82F823100020986094
:1005380007221A6070470120704700BF10E000E0F2
:1005480000ED00E008B501F013F908BD2DE9F84FFA
:1005580080460F46A04B984223D003F5806398420B
:100568001FD003F5806398421BD003F5806398423F
:1005780017D003F58063984213D003F5806398423F
:100588000FD003F5806398420BD003F5806398423F
:1005980007D003F58063984203D09048C52100F046
:1005A8001DFE3B881BB98D48C62100F017FE7B68ED
:1005B800012B22D9112B20D0022B1ED0122B1CD09C
:1005C800874A934219D002F58012934215D002F55A
:1005D8008012934211D0A2F5F81293420DD002F581
:1005E8008012934209D002F58012934205D0032B62
:1005F80003D07A48C72100F0F1FDBB68022B03D96C
:100608007648C82100F0EAFD002423E1A14601252F
:10061800A5403B6803EA050AAA4540F01A817B68B1
:10062800022B01D0122B4AD13B69C3B3092B36D018
:10063800ABB3A3B39BB393B3012B30D02FD0022B12
:100648002DD02CD02BD0032B29D0042B27D026D06B
:1006580025D0052B23D022D0092B20D0062B1ED045
:10066800092B1CD0072B1AD019D018D0082B16D05C
:1006780015D014D0092B12D011D00A2B0FD00ED0C0
:100688000B2B0CD00C2B0AD009D00D2B07D00C2B20
:1006980005D00F2B03D05148D92100F09FFDE60863
:1006A800083658F8261004F0070080000F2383400E
:1006B80021EA03023B698340134348F82630D8F8FF
:1006C80000304FEA440B032606FA0BF6F64306EA17
:1006D80003027B6803F0030303FA0BF31343C8F820
:1006E80000307B685A1E012A03D9112B01D0122B26
:1006F8001CD1FB68032B03D93848EC2100F06EFDB0
:10070800D8F8083006EA0302FB6803FA0BF3134330
:10071800C8F80830D8F8043023EA05037D68C5F323
:10072800001505FA09F51D43C8F80450D8F80C302F
:100738003340BE6806FA0BF61E43C8F80C607B68A7
:1007480013F0805F00F08580264A536C43F48043A1
:100758005364A308991CA2F5803252F8211004F0C2
:10076800030080000F22824021EA02011A4A9045C4
:100778003AD002F5806290452BD002F58062904510
:1007880025D002F5806290451FD002F58062904521
:1007980019D002F58062904513D002F58062904529
:1007A8000DD002F58062904507D002F58062904531
:1007B80001D1082219E0092217E0072215E00622D4
:1007C80013E0052211E004220FE003220DE00222CB
:1007D8000BE0012209E000BF000002401C200008D5
:1007E8000000111000380240002282400A43023300
:1007F8001B4941F823201B4B1A686FEA0A0303EAD6
:100808000201786810F4803F01D04AEA0201154AD3
:100818001160526803EA0201786810F4003F01D0C1
:100828004AEA02010F4A5160926803EA02017868B5
:1008380010F4801F01D04AEA02010A4A9160D26886
:100848001340796811F4001F01D04AEA0203054AEF
:10085800D36001340F2C7FF6D9AEBDE8F88F00BF06
:1008680000380140003C014070B5064615460C466C
:1008780021B909484FF4D67100F0B0FC012D04D914
:10088800054840F2AD1100F0A9FC0DB1B46170BD8E
:100898002404B46170BD00BF1C20000838B50546AB
:1008A8000C4621B9044840F2C31100F097FC6B696B
:1008B8005C406C6138BD00BF1C200008704700BF59
:1008C80038B5044603680F2B04D9B34840F21B110E
:1008D80000F084FC236813F0010F5FD06368012BDC
:1008E80006D9052B04D0AC484FF4907100F076FC83
:1008F800AA4B9B6803F00C03042B0AD0A74B9B68F8
:1009080003F00C03082B0DD1A44B5B6813F4800F84
:1009180008D0A24B1B6813F4003F3FD06368002B3C
:100928003CD1FCE100229E4B1A70FFF78FFD054673
:1009380007E0FFF78BFD401B41F28833984200F235
:10094800F081964B1B6813F4003FF2D12279944B47
:100958001A7063688BB1FFF779FD054607E0FFF76A
:1009680075FD401B41F28833984200F2DC818B4BC5
:100978001B6813F4003FF2D010E0FFF767FD05464F
:1009880007E0FFF763FD401B41F28833984200F20D
:10099800CC81824B1B6813F4003FF2D1236813F01B
:1009A800020F6DD0E368012B04D97B484FF4B07176
:1009B80000F014FC23691F2B04D9774840F2611119
:1009C80000F00CFC754B9B6813F00C0F0AD0734BAE
:1009D8009B6803F00C03082B1CD1704B5B6813F465
:1009E800800F17D16D4B1B6813F0020F03D0E3681B
:1009F800012B40F09C816948026822F0F8012269C5
:100A0800F82393FAA3F3B3FA83F3DBB29A400A43C9
:100A1800026035E0E3680BB30122624B1A60FFF70E
:100A280015FD054605E0FFF711FD401B642800F29F
:100A380080815A4B1B6813F0020FF4D057480368A3
:100A480023F0F8012269F82393FAA3F3B3FA83F3A6
:100A5800DBB29A4041EA0203036011E00022514BE5
:100A68001A60FFF7F3FC054605E0FFF7EFFC401BB3
:100A7800642800F26081494B1B6813F0020FF4D11F
:100A8800236813F0080F2ED06369012B04D942485C
:100A98004FF4D07100F0A2FB636993B10122424B7D
:100AA8001A60FFF7D3FC054605E0FFF7CFFC401BB3
:100AB800642800F24281394B5B6F13F0020FF4D0C7
:100AC80011E00022384B1A60FFF7C0FC054605E02C
:100AD800FFF7BCFC401B642800F231812F4B5B6F91
:100AE80013F0020FF4D1236813F0040F6FD0A3683A
:100AF800012B06D9052B04D027484FF4E57100F0E7
:100B08006DFB264A136C43F080531364A2F5E4325C
:100B1800136843F480731360FFF798FC054605E0FB
:100B2800FFF794FC401B642800F20B811F4B1B68E5
:100B380013F4807FF4D000221D4B1A70FFF786FC57
:100B4800054607E0FFF782FC401B41F288339842D4
:100B580000F2F980114B1B6F13F0020FF2D1227AC9
:100B6800134B1A70A368012B11D1FFF76FFC0546D0
:100B780007E0FFF76BFC401B41F28833984200F214
:100B8800E480064B1B6F13F0020FF2D01FE0FFF753
:100B98005DFC054616E000BF5C20000800380240F6
:100BA8000238024000004742800E47420070004071
:100BB80070380240FFF74AFC401B41F288339842E4
:100BC80000F2C580684B1B6F13F0020FF2D1A369C6
:100BD800022B04D9654840F20E2100F0FFFAA36900
:100BE800002B00F0B680604A926802F00C02082AD6
:100BF80000F0B180022B7FD1E3693BB1B3F5800FE0
:100C080004D05A4840F2172100F0E8FA236A3F2B33
:100C180004D956484FF4067100F0E0FA636AC03B05
:100C2800F02B04D9514840F2192100F0D7FAA36AF1
:100C3800022B0AD0042B08D0062B06D0082B04D090
:100C48004A4840F21A2100F0C9FAE36A043B0B2B28
:100C580004D9464840F21B2100F0C0FA0022444B58
:100C68001A60FFF7F3FB054604E0FFF7EFFB401BB4
:100C7800642872D83C4B1B6813F0007FF5D1216AB9
:100C8800626A47F6C07393FAA3F3B3FA83F3DBB24D
:100C98009A401143A36A5B08013B4FF4403292FA31
:100CA800A2F2B2FA82F2D2B293400B43E26943EA6B
:100CB8000201E36A4FF0706292FAA2F2B2FA82F28B
:100CC800D2B203FA02F241EA020343F00053264A81
:100CD80053600122264B1A60FFF7B8FB044604E074
:100CE800FFF7B4FB001B642839D81F4B1B6813F0AF
:100CF800007FF5D0002038BD00221D4B1A60FFF799
:100D0800A5FB044604E0FFF7A1FB001B642828D8D4
:100D1800154B1B6813F0007FF5D1002038BD01206A
:100D280038BD032038BD032038BD032038BD01205D
:100D380038BD032038BD032038BD032038BD03204B
:100D480038BD032038BD032038BD032038BD03203B
:100D580038BD002038BD012038BD032038BD032030
:100D680038BD032038BD00BF003802405C200008B1
:100D78006000474270B504460D460368013B0E2BE0
:100D880004D9884840F27E2100F028FA072D04D9BA
:100D9800844840F27F2100F021FA834B1B6803F05E
:100DA8000F03AB4280F08B80EAB27F4B1A701B684E
:100DB80003F00F03AB4240F05181236813F0020F98
:100DC8001DD0A368A3B1802B12D0902B10D0A02BDC
:100DD8000ED0B02B0CD0C02B0AD0D02B08D0E02BD3
:100DE80006D0F02B04D06F4840F2952100F0F6F9B8
:100DF8006E498B6823F0F002A36813438B60236865
:100E080013F0010F00F0E8806368022B04D96548ED
:100E18004FF4277100F0E2F96268012A05D1634BAB
:100E28001B6813F4003F0ED11AE1022A05D15F4B6B
:100E38001B6813F0007F06D114E15C4B1B6813F0AC
:100E4800020F00F0118159498B6823F00303134303
:100E58008B60FFF7FBFA05466368012B0FD107E0AB
:100E6800FFF7F4FA401B41F28833984200F2FE8003
:100E78004E4B9B6803F00C03042BF1D1ACE0022B22
:100E880017D107E0FFF7E2FA401B41F28833984296
:100E980000F2EE80454B9B6803F00C03082BF1D160
:100EA8009AE0FFF7D3FA401B41F28833984200F2E8
:100EB800E1803E4B9B6813F00C0FF2D18CE0236865
:100EC80013F0020F1DD0A368A3B1802B12D0902B72
:100ED80010D0A02B0ED0B02B0CD0C02B0AD0D02B0A
:100EE80008D0E02B06D0F02B04D02E484FF43971EF
:100EF80000F074F92D498B6823F0F002A3681343BE
:100F08008B60236813F0010F5ED06368022B04D94D
:100F1800244840F2EB2100F061F96268012A05D10A
:100F2800224B1B6813F4003F0ED1A5E0022A05D11D
:100F38001E4B1B6813F0007F06D19FE01B4B1B68FC
:100F480013F0020F00F09C8018498B6823F003030C
:100F580013438B60FFF77AFA06466368012B0FD1BB
:100F680007E0FFF773FA801B41F28833984200F2DA
:100F780089800E4B9B6803F00C03042BF1D123E00E
:100F8800022B1CD106E0FFF761FA801B41F288337F
:100F9800984279D8054B9B6803F00C03082BF2D1D3
:100FA80012E000BF5C200008003C0240003802400C
:100FB800FFF74CFA801B41F28833984266D8354BCC
:100FC8009B6813F00C0FF3D1EAB2334B1A701B680D
:100FD80003F00F03AB425BD1236813F0040F19D061
:100FE800E36883B1B3F5805F0DD0B3F5A05F0AD095
:100FF800B3F5C05F07D0B3F5E05F04D0274840F2EF
:101008003B3100F0EBF823498B6823F4E052E368A6
:1010180013438B60236813F0080F1AD0236983B138
:10102800B3F5805F0DD0B3F5A05F0AD0B3F5C05F0C
:1010380007D0B3F5E05F04D0184840F2423100F021
:10104800CDF8144A936823F46043216943EAC10345
:1010580093600F20FFF7C4F9002070BD012070BD18
:10106800012070BD012070BD012070BD032070BD3E
:10107800032070BD032070BD012070BD012070BD2C
:10108800012070BD032070BD032070BD032070BD1A
:10109800012070BD00380240003C02405C2000087E
:1010A800224B9B6803F00C03042B3DD0082B01D086
:1010B8001F4870471D4B586800F03F005B6813F4E9
:1010C800800F10D01B4BB3FBF0F3184A506847F65B
:1010D800C072104092FAA2F2B2FA82F2D2B2D040B2
:1010E80000FB03F30FE0124BB3FBF0F30F4A506819
:1010F80047F6C072104092FAA2F2B2FA82F2D2B265
:10110800D04000FB03F3094A506800F440304FF424
:10111800403292FAA2F2B2FA82F2D2B2D040013050
:101128004000B3FBF0F070470248704700380240B7
:101138000024F40000127A0008B5FFF7B1FF094B4C
:101148009B6803F0F002F02393FAA3F3B3FA83F356
:10115800DBB222FA03F3044AD35CD840034B18608D
:1011680008BD00BF003802404C2000080C000020D9
:10117800FEE700BF08B5034800F056F80120FFF766
:10118800F7FF00BF8C20000808B50D4B1B6813B98A
:101198000C4A0B4B1A600A4B1A68C31C23F0030352
:1011A800134409498B4206D900F0E6FA0C23036080
:1011B8004FF0FF3008BD02490B60104608BD00BF64
:1011C800900000203801002000FC0120012303606A
:1011D800014B0B60704700BF0400002008B50346B0
:1011E8000A460348194600F005F8FFF7C3FF00BF99
:1011F800E02000080FB400B583B004AB53F8042B0B
:1012080001930848802100F0EFFA011E03DD05482C
:1012180000F03EF80146084603B05DF804EB04B060
:10122800704700BF9800002010B5044600F0AAFAE5
:101238000146204600F02CF80248012100F028F869
:1012480010BD00BFD021000810B400221AE04FF0F2
:101258006043D3F8803E13F0010F06D04FF060438F
:10126800D3F8003E13F0010F01D110460DE04FF006
:1012780060431B68002BFAD004784FF060431C7061
:10128800013201308A42E2D308465DF8044B7047C8
:1012980008B5FFF7D9FF08BD08B500F079F808BD13
:1012A800F8B504460D4617461E462648FFF7A2FF26
:1012B80025482168FFF79EFF24486168FFF79AFFD9
:1012C8002348A168FFF796FF2248E168FFF792FFDD
:1012D80021482169FFF78EFF20486169FFF78AFFDF
:1012E8001F48A169FFF786FF1E48E169FFF782FFE3
:1012F8001D48FFF77FFF1D482946FFF77BFF1C4C61
:10130800E16A1C48FFF776FF216B1B48FFF772FF65
:10131800E16B1A48FFF76EFF15F0800F03D01848ED
:101328003946FFF767FF15F4004F03D015483146DB
:10133800FFF760FF1448FFF75DFF14480699FFF7B1
:1013480059FFF8BD38210008482100085821000835
:1013580068210008782100088821000898210008E1
:10136800A8210008B8210008C8210008D4210008D5
:1013780000ED00E0E4210008F42100080422000840
:101388001422000824220008342200083C22000805
:101398000C4B1A6842F001021A60002199601A6821
:1013A80022F0847222F480321A60074A5A601A685E
:1013B80022F480221A60D9604FF00062034B9A60D1
:1013C800704700BF003802401030002400ED00E0F4
:1013D8000122014B1A707047180100200022014BAE
:1013E8001A7070471801002008B5064B00221A80B1
:1013F8009A70DA701A715A719A711A81FFF7E8FFB8
:1014080008BD00BF1C01002000B585B004AB03E98E
:101418000700FFF7E3FFBDF804200C4B1A809DF886
:1014280006209A709DF80720DA709DF808201A7136
:101438009DF809205A719DF80A209A71BDF80C2070
:101448001A81FFF7C5FF05B05DF804FB1C010020F9
:10145800014B1878704700BF1801002038B5FFF716
:10146800F7FF002800F0A680002000F05BF9524A40
:10147800138901339BB21381504AA2FB03129209CC
:101488004FF47A7101FB12339BB2002B40F092802B
:10149800032000F047F9484B00221A819A7901325B
:1014A800D2B29A71464BA3FB02135B09C3EB031339
:1014B8009B00D31A13F0FF0F7CD1022000F032F901
:1014C8003D4B00229A715A790132D2B25A713C4B83
:1014D800A3FB02135B09C3EB03139B00D31A13F09E
:1014E800FF0F67D1344B00225A711A790132D2B2F8
:1014F8001A71344BA3FB02131B0903EB4303DB00F4
:10150800D31A13F0FF0F55D1012000F00BF92A4A26
:1015180000231371D3780133DBB2D370927812F0C1
:10152800010101D0072A02D951B9072A08D913F0B5
:101538001F0F2BD120490123CB70D3188B7025E0C6
:10154800022A11D12049A1FB03010909C1EBC100FD
:1015580001EB80015B1A13F0FF0F17D11649012325
:10156800CB70D3188B7011E0184CA3FB0445591BA2
:1015780005EB51010909C1EB41115B1A13F0FF0F8B
:1015880004D10D490123CB70D3188B700A4B9A787C
:101598000F4BA3FB02139B0803EB430103EB8103EF
:1015A800D31A13F0FF0F05D1034B01229A701A8842
:1015B80001321A8038BD00BF1C010020D34D6210D3
:1015C80089888888ABAAAAAA09CB3D8D85104208CC
:1015D8004FECC44E10B592B0174A136C43F08053C9
:1015E8001364A2F5E432136843F440431360012303
:1015F80001930293022407944FF48003089308236D
:1016080009934FF4A8730A930B9407230C9301A82A
:10161800FFF756F90F230D930E9400230F934FF401
:10162800A05310934FF4805311930DA80521FFF791
:10163800A1FB12B010BD00BF0038024008B5FFF78B
:10164800A7FEFEF7E1FEFFF7C5FF08BD00B585B0B0
:101658006420FFF7C9FE012000F026F8002000F002
:1016680023F8022000F020F8032000F01DF81F23C3
:101678008DF807300C238DF8063040F2DF73ADF893
:10168800043017238DF808303B238DF809303923AF
:101698008DF80A306423ADF80C3004AB13E9070069
:1016A800FFF7B2FEFEE700BF70B586B0044628B962
:1016B800194A136B43F00803136316E0012805D198
:1016C800154A136B43F0080313630EE0022805D193
:1016D800114A136B43F00803136306E0032804D18F
:1016E8000D4A136B43F0080313630C4B33F8145083
:1016F800019501230293039302230493084E56F89D
:10170800240001A9FEF722FF56F8240029460022EA
:10171800FFF7AAF806B070BD003802408022000822
:101728001000002008B50346044A52F82000044A75
:1017380032F81310FFF7B2F808BD00BF1000002000
:1017480080220008704700BFFEE700BFFEE700BF29
:10175800FEE700BFFEE700BF704700BF704700BF4D
:10176800704700BF08B5FEF769FEFEF7EBFE08BD3F
:1017780008B5FFF773FE08BD014B1868704700BF36
:1017880080000020034613F8012B002AFBD1181A09
:101798000138704730B5141E9BB0054604DA8B2318
:1017A80003604FF0FF301CE04FF40272ADF80C20DC
:1017B80014BF04F1FF322246029205924FF6FF72DF
:1017C80000910491ADF80E2069461A461E9B00F060
:1017D80075F8431CBCBF8B232B6014B1009B0022FF
:1017E8001A701BB030BD000073B50093054B064658
:1017F8000D461446186831462A462346FFF7CAFFA5
:1018080002B070BD800000202DE9F0478E68B34219
:1018180082460C469046994640D38A8912F4906FC6
:101828003AD0256809696F1A6569022305EB4505F1
:1018380095FBF3F57B1C4B449D4238BF1D46530571
:101848000FD5294600F036FB064698B121693A467D
:1018580000F0C5FAA38923F4906343F08003A381C1
:1018680013E02A4600F07CFB064670B95046216911
:1018780000F0DCFA0C23CAF80030A38943F04003D7
:10188800A3814FF0FF30BDE8F087266165613E44D3
:10189800ED1B2660A5604E46B14500D24E46324645
:1018A8002068414600F0A6FAA3689B1BA360236842
:1018B8001E4426600020BDE8F08700002DE9F043B3
:1018C8009DB0064603938B891C060D4690460CD5A1
:1018D8000B6953B9402100F0EDFA2860286110B96E
:1018E8000C233360CCE040236B6100230993202351
:1018F8008DF8293030238DF82A3043461C4613F8DA
:10190800012B1AB9B4EB08090FD002E0252AF5D14A
:10191800F8E73046294642464B46FFF775FF013047
:1019280000F0A980099B4B4409932378002B00F011
:10193800A28000234FF0FF32049307930592069389
:101948008DF853301A9304F101084446DFF84891A2
:1019580021784846052200F033FA08F10108049B73
:1019680030B1C9EB00000122824013430493ECE735
:10197800D80644BF20228DF85320190744BF2B22D4
:101988008DF8532022782A2A02D0079923460EE0A0
:10199800039A111D12680391002ABBBF524243F0FB
:1019A800020307920792B8BF049301340AE01C4669
:1019B80001332278303A092A03D80A2000FB012192
:1019C800F5E7079123782E2B1AD163782A2B0AD1B1
:1019D800039B1A1D1B680392002BB8BF4FF0FF33FF
:1019E800023405930CE0611C00220C460131237877
:1019F800303B092B03D80A2000FB0232F5E7059299
:101A0800DFF8988021784046032200F0D9F938B1F0
:101A1800049AC8EB00004023834013430493013425
:101A280021781A488DF82810062204F1010800F0E0
:101A3800C7F988B1164B33B9039B073323F0070363
:101A48000833039313E003AB0093304604A92A46F6
:101A5800104BAFF3008007E003AB0093304604A9B6
:101A68002A460C4B00F092F8421C074603D0099B0B
:101A78003B44099341E7AB895B0601D4099801E02F
:101A88004FF0FF301DB0BDE8F08300BF942200087E
:101A980000000000111800088A220008902200089F
:101AA8002DE9F84391461F468A680B69DDF82080C6
:101AB8009342B8BF1346C9F8003091F84320064650
:101AC8000C4612B10133C9F800302368990642BFA9
:101AD800D9F800300233C9F80030256815F006053A
:101AE8001CD094F843302268003318BF01239206B3
:101AF8001FD5E1185A1C302081F84300224494F87D
:101B0800451082F84310023313E03046394604F199
:101B180019020123C047013007D00135E368D9F81D
:101B280000209B1A9D42F0DBDBE74FF0FF30BDE859
:101B3800F8833046394604F14302C0470130F4D0F7
:101B48002268D9F80050E36802F00602042A08BFA8
:101B58005D1B2269A3680CBF25EAE5750025934241
:101B6800C4BF9B1AED184FF00009A9450ADA3046A0
:101B7800394604F11A020123C0470130D5D009F1D2
:101B88000109F2E70020BDE8F88300002DE9FF41D4
:101B98000C461746227E6E2A984606460A9B01F195
:101BA800430100F0A98012D8632A23D00AD8002A5A
:101BB80000F0B680582A40F0C58084F84520DFF848
:101BC800F8E151E0642A1ED0692A1CD0BAE0732AD1
:101BD80000F0AA8009D86F2A2BD0702A40F0B28072
:101BE800226842F02002226039E0752A21D0782A42
:101BF80035D0A7E01A68111D1960136884F84230BF
:101C080004F14205A2E020681A6810F0800F03D0A2
:101C1800101D1860136805E04506F9D5101D1860F9
:101C2800B2F90030002B3BDA2D225B4284F84320C6
:101C380036E020681A6810F0800F03D0101D186075
:101C4800136804E04006F9D5101D18601388227E39
:101C5800DFF864E16F2A0CBF08220A221CE0782210
:101C6800DFF858E184F845202268186812F0800FE0
:101C780000F104051D6001D0036802E05506FBD59C
:101C88000388D00744BF42F0200222601BB92268B3
:101C980022F0200222601022002084F8430002E093
:101CA800DFF814E10A226568A560002DA2BF20684C
:101CB80020F00400206003B965B10D46B3FBF2F0D3
:101CC80002FB10331EF8033005F8013D03460028D7
:101CD800F4D100E00D46082A0BD12368DA0708D5AD
:101CE800236962689A42DEBF302305F8013C05F19A
:101CF800FF35491B21612EE025681A68606915F0D7
:101D0800800F03D0151D1D60136808E015F0400F03
:101D180002F104051D60136801D0188000E0186006
:101D2800002323610D4616E01A68111D1960156815
:101D380062682846002100F043F808B1401B606043
:101D4800636804E004F1420584F84220012323611A
:101D5800002384F84330CDF800803046214603AA9A
:101D68003B46FFF79DFE013002D14FF0FF301FE0E8
:101D7800304639462A462369C0470130F5D02368E2
:101D88009B0705D4E068039B9842B8BF18460FE04C
:101D98000025E368039A9B1A9D42F3DA30463946D8
:101DA80004F119020123C0470130DED00135F0E704
:101DB80004B0BDE8F08100BF9B220008AC220008F7
:101DC80010B5C9B202449042034606D01C788C4232
:101DD80000F10100F7D1184610BD002010BD10B564
:101DE800431E0A44914204D011F8014B03F8014FF5
:101DF800F8E710BD814210B501EB020301D3421E82
:101E08000BE09842FBD28118D21AD34204D013F8BF
:101E1800014D01F8014DF8E710BD994204D011F8C1
:101E2800014B02F8014FF8E710BD000030B500295A
:101E38003DD051F8042C0B1F1D49002AB8BF9B1830
:101E48000A680C4612B95A600B6030BD93420DD235
:101E580019685818904201BF5A5852181A604268B7
:101E68005A60236030BD994203D80A465168002958
:101E7800F9D1146815199D420AD11B682344D0185A
:101E88008842136013D10868034413604B680DE05F
:101E980002D90C23036030BD1C681819884204BF9E
:101EA80008684968596004BF00191860536030BD5C
:101EB8002C01002070B5CC1C24F0030408340C2C31
:101EC80038BF0C24002C064603DA0C2333600020AC
:101ED80070BD8C42F9D3204A136810461946A1B147
:101EE8000A68121B0ED40B2A03D90A608B188C506F
:101EF8001FE08B420DBF5A684A685A60026018BFDB
:101F08000B4616E00B464968E9E7144D2B681BB9E8
:101F1800304600F04BF828603046214600F046F87D
:101F2800421C0346D1D0C51C25F0030585420AD1C1
:101F38001C6003F10B001A1D20F00700821A0AD05A
:101F48005142995070BD3046E91A00F02FF801301F
:101F5800BBD02B46ECE770BD2C01002028010020E7
:101F6800F8B5074615460E4621B91146BDE8F840B2
:101F7800FFF7A0BF1AB9FFF759FF2846F8BD00F0D0
:101F880025F8A8420ED238462946FFF793FF0446A3
:101F980050B131462A46FFF722FF38463146FFF74F
:101FA80045FF01E03046F8BD2046F8BD38B5064C7F
:101FB8000023054608462360FFF7E6F8431C02D1D4
:101FC800236803B12B6038BD3001002051F8040CA0
:101FD8000028BEBF091851F8043CC01804387047DF
:101FE8002E2E2F73797374656D2F7372632F73742C
:101FF8006D333266342D68616C2F73746D333266BD
:102008003478785F68616C5F636F727465782E638B
:10201800000000002E2E2F73797374656D2F737274
:10202800632F73746D333266342D68616C2F73744B
:102038006D3332663478785F68616C5F6770696F9A
:102048002E630000000000000102030401020304E3
:10205800060708092E2E2F73797374656D2F737216
:10206800632F73746D333266342D68616C2F73740B
:102078006D3332663478785F68616C5F7263632EA3
:102088006300000061626F727428292C20657869EA
:1020980074696E672E2E2E002C2066756E63746927
:1020A8006F6E3A2000000000617373657274696F87
:1020B8006E2022257322206661696C65643A206669
:1020C800696C6520222573222C206C696E65202599
:1020D80064257325730A00006173736572745F70F9
:1020E8006172616D2829206661696C65643A2066B1
:1020F800696C6520222573222C206C696E65202569
:10210800640A00006D61696E28617267633D256429
:102118002C20617267763D5B000000002C200000D7
:1021280022257322000000005D293B0A0000000000
:10213800537461636B206672616D653A0A00000032
:10214800205230203D2020253038580A0000000059
:10215800205231203D2020253038580A0000000048
:10216800205232203D2020253038580A0000000037
:10217800205233203D2020253038580A0000000026
:1021880020523132203D20253038580A0000000006
:10219800204C52203D2020253038580A00000000ED
:1021A800205043203D2020253038580A00000000E8
:1021B80020505352203D20253038580A0000000096
:1021C8004653522F4641523A0A00000020434653D4
:1021D80052203D2020253038580A00002048465318
:1021E80052203D2020253038580A0000204446530C
:1021F80052203D2020253038580A000020414653FF
:1022080052203D2020253038580A0000204D4D46E8
:102218004152203D20253038580A000020424641CE
:1022280052203D2020253038580A00004D6973633C
:102238000A000000204C522F4558435F5245545520
:10224800524E3D20253038580A0000005B48617224
:10225800644661756C745D0A000000005B4275732A
:102268004661756C745D0A005B557361676546610C
:10227800756C745D0A0000000010002000400080AA
:102288004300232D302B2000686C4C0065666745A1
:1022980046470030313233343536373839414243D6
:1022A8004445460030313233343536373839616287
:0522B80063646566008F
:1022C0007856341294000020000000000024F4002E
:1022D000000C0240000C0240000C0240000C0240C6
:1022E00000000000000000000000000000000000EE
:1022F00000000000000000000000000000000000DE
:10230000882200080000000000000000000000001B
:1023100000000000000000000000000000000000BD
:1023200000000000000000000000000000000000AD
:10233000000000000000000000000000000000009D
:082340002000002032547698C1
:040000050800018965
:00000001FF
